{
  "contractName": "DAO",
  "abi": [
    {
      "inputs": [
        {
          "internalType": "address",
          "name": "_token",
          "type": "address"
        }
      ],
      "stateMutability": "nonpayable",
      "type": "constructor"
    },
    {
      "inputs": [
        {
          "internalType": "bytes32",
          "name": "",
          "type": "bytes32"
        }
      ],
      "name": "proposals",
      "outputs": [
        {
          "internalType": "address",
          "name": "proposal",
          "type": "address"
        },
        {
          "internalType": "bytes32",
          "name": "hash",
          "type": "bytes32"
        },
        {
          "internalType": "uint256",
          "name": "createdAt",
          "type": "uint256"
        },
        {
          "internalType": "uint256",
          "name": "voteYes",
          "type": "uint256"
        },
        {
          "internalType": "uint256",
          "name": "voteNo",
          "type": "uint256"
        },
        {
          "internalType": "enum DAO.Status",
          "name": "status",
          "type": "uint8"
        }
      ],
      "stateMutability": "view",
      "type": "function"
    },
    {
      "inputs": [
        {
          "internalType": "address",
          "name": "",
          "type": "address"
        }
      ],
      "name": "shares",
      "outputs": [
        {
          "internalType": "uint256",
          "name": "",
          "type": "uint256"
        }
      ],
      "stateMutability": "view",
      "type": "function"
    },
    {
      "inputs": [],
      "name": "token",
      "outputs": [
        {
          "internalType": "contract IERC20",
          "name": "",
          "type": "address"
        }
      ],
      "stateMutability": "view",
      "type": "function"
    },
    {
      "inputs": [],
      "name": "totalShares",
      "outputs": [
        {
          "internalType": "uint256",
          "name": "",
          "type": "uint256"
        }
      ],
      "stateMutability": "view",
      "type": "function"
    },
    {
      "inputs": [
        {
          "internalType": "address",
          "name": "",
          "type": "address"
        },
        {
          "internalType": "bytes32",
          "name": "",
          "type": "bytes32"
        }
      ],
      "name": "votes",
      "outputs": [
        {
          "internalType": "bool",
          "name": "",
          "type": "bool"
        }
      ],
      "stateMutability": "view",
      "type": "function"
    },
    {
      "inputs": [
        {
          "internalType": "uint256",
          "name": "_shares",
          "type": "uint256"
        }
      ],
      "name": "deposit",
      "outputs": [],
      "stateMutability": "nonpayable",
      "type": "function"
    },
    {
      "inputs": [
        {
          "internalType": "uint256",
          "name": "_shares",
          "type": "uint256"
        }
      ],
      "name": "withdraw",
      "outputs": [],
      "stateMutability": "nonpayable",
      "type": "function"
    },
    {
      "inputs": [
        {
          "internalType": "bytes32",
          "name": "_proposal",
          "type": "bytes32"
        }
      ],
      "name": "createProposal",
      "outputs": [],
      "stateMutability": "nonpayable",
      "type": "function"
    },
    {
      "inputs": [
        {
          "internalType": "bytes32",
          "name": "_proposal",
          "type": "bytes32"
        },
        {
          "internalType": "enum DAO.Side",
          "name": "_side",
          "type": "uint8"
        }
      ],
      "name": "vote",
      "outputs": [],
      "stateMutability": "nonpayable",
      "type": "function"
    }
  ],
  "bytecode": "0x608060405234801561001057600080fd5b50604051610ee0380380610ee08339818101604052602081101561003357600080fd5b810190808051906020019092919050505080600460006101000a81548173ffffffffffffffffffffffffffffffffffffffff021916908373ffffffffffffffffffffffffffffffffffffffff16021790555050610e4b806100956000396000f3fe608060405234801561001057600080fd5b50600436106100935760003560e01c80633a98ef39116100665780633a98ef39146101de578063b6b55f25146101fc578063c9a28cb91461022a578063ce7c2ac214610265578063fc0c546a146102bd57610093565b80631db5ade8146100985780632542bf06146100fc5780632e1a7d4d1461012a57806332ed5b1214610158575b600080fd5b6100e4600480360360408110156100ae57600080fd5b81019080803573ffffffffffffffffffffffffffffffffffffffff169060200190929190803590602001909291905050506102f1565b60405180821515815260200191505060405180910390f35b6101286004803603602081101561011257600080fd5b8101908080359060200190929190505050610320565b005b6101566004803603602081101561014057600080fd5b8101908080359060200190929190505050610549565b005b6101846004803603602081101561016e57600080fd5b810190808035906020019092919050505061072d565b604051808773ffffffffffffffffffffffffffffffffffffffff1681526020018681526020018581526020018481526020018381526020018260028111156101c857fe5b8152602001965050505050505060405180910390f35b6101e6610796565b6040518082815260200191505060405180910390f35b6102286004803603602081101561021257600080fd5b810190808035906020019092919050505061079c565b005b6102636004803603604081101561024057600080fd5b8101908080359060200190929190803560ff1690602001909291905050506108e9565b005b6102a76004803603602081101561027b57600080fd5b81019080803573ffffffffffffffffffffffffffffffffffffffff169060200190929190505050610db1565b6040518082815260200191505060405180910390f35b6102c5610dc9565b604051808273ffffffffffffffffffffffffffffffffffffffff16815260200191505060405180910390f35b60016020528160005260406000206020528060005260406000206000915091509054906101000a900460ff1681565b6202bf20600260003373ffffffffffffffffffffffffffffffffffffffff1673ffffffffffffffffffffffffffffffffffffffff1681526020019081526020016000205410156103bb576040517f08c379a0000000000000000000000000000000000000000000000000000000008152600401808060200182810382526026815260200180610df06026913960400191505060405180910390fd5b6000801b6000808381526020019081526020016000206001015414610448576040517f08c379a00000000000000000000000000000000000000000000000000000000081526004018080602001828103825260188152602001807f70726f706f73616c20616c72656164792063726561746564000000000000000081525060200191505060405180910390fd5b6040518060c001604052803373ffffffffffffffffffffffffffffffffffffffff16815260200182815260200142815260200160008152602001600081526020016000600281111561049657fe5b81525060008083815260200190815260200160002060008201518160000160006101000a81548173ffffffffffffffffffffffffffffffffffffffff021916908373ffffffffffffffffffffffffffffffffffffffff1602179055506020820151816001015560408201518160020155606082015181600301556080820151816004015560a08201518160050160006101000a81548160ff0219169083600281111561053e57fe5b021790555090505050565b80600260003373ffffffffffffffffffffffffffffffffffffffff1673ffffffffffffffffffffffffffffffffffffffff1681526020019081526020016000205410156105fe576040517f08c379a000000000000000000000000000000000000000000000000000000000815260040180806020018281038252601d8152602001807f6e6f7420656e6f7567682073686172657320746f20776974686472617700000081525060200191505060405180910390fd5b80600260003373ffffffffffffffffffffffffffffffffffffffff1673ffffffffffffffffffffffffffffffffffffffff1681526020019081526020016000206000828254039250508190555080600360008282540392505081905550600460009054906101000a900473ffffffffffffffffffffffffffffffffffffffff1673ffffffffffffffffffffffffffffffffffffffff1663a9059cbb33836040518363ffffffff1660e01b8152600401808373ffffffffffffffffffffffffffffffffffffffff16815260200182815260200192505050602060405180830381600087803b1580156106ee57600080fd5b505af1158015610702573d6000803e3d6000fd5b505050506040513d602081101561071857600080fd5b81019080805190602001909291905050505050565b60006020528060005260406000206000915090508060000160009054906101000a900473ffffffffffffffffffffffffffffffffffffffff16908060010154908060020154908060030154908060040154908060050160009054906101000a900460ff16905086565b60035481565b80600260003373ffffffffffffffffffffffffffffffffffffffff1673ffffffffffffffffffffffffffffffffffffffff1681526020019081526020016000206000828254019250508190555080600360008282540192505081905550600460009054906101000a900473ffffffffffffffffffffffffffffffffffffffff1673ffffffffffffffffffffffffffffffffffffffff166323b872dd3330846040518463ffffffff1660e01b8152600401808473ffffffffffffffffffffffffffffffffffffffff1681526020018373ffffffffffffffffffffffffffffffffffffffff1681526020018281526020019350505050602060405180830381600087803b1580156108aa57600080fd5b505af11580156108be573d6000803e3d6000fd5b505050506040513d60208110156108d457600080fd5b81019080805190602001909291905050505050565b6000801b600080848152602001908152602001600020600101541415610977576040517f08c379a00000000000000000000000000000000000000000000000000000000081526004018080602001828103825260178152602001807f70726f706f73616c20646f6573206e6f7420657869737400000000000000000081525060200191505060405180910390fd5b6000600260003373ffffffffffffffffffffffffffffffffffffffff1673ffffffffffffffffffffffffffffffffffffffff168152602001908152602001600020541415610a2d576040517f08c379a00000000000000000000000000000000000000000000000000000000081526004018080602001828103825260168152602001807f6e6f2073686172657320746f20766f746520776974680000000000000000000081525060200191505060405180910390fd5b60001515600160003373ffffffffffffffffffffffffffffffffffffffff1673ffffffffffffffffffffffffffffffffffffffff168152602001908152602001600020600084815260200190815260200160002060009054906101000a900460ff16151514610b04576040517f08c379a000000000000000000000000000000000000000000000000000000000815260040180806020018281038252600d8152602001807f616c726561647920766f7465640000000000000000000000000000000000000081525060200191505060405180910390fd5b4262093a8060008085815260200190815260200160002060020154011015610b94576040517f08c379a00000000000000000000000000000000000000000000000000000000081526004018080602001828103825260138152602001807f766f74696e6720706572696f6420656e6465640000000000000000000000000081525060200191505060405180910390fd5b60018060003373ffffffffffffffffffffffffffffffffffffffff1673ffffffffffffffffffffffffffffffffffffffff168152602001908152602001600020600084815260200190815260200160002060006101000a81548160ff02191690831515021790555060006001811115610c0957fe5b816001811115610c1557fe5b1415610ce657600260003373ffffffffffffffffffffffffffffffffffffffff1673ffffffffffffffffffffffffffffffffffffffff168152602001908152602001600020546000808481526020019081526020016000206003016000828254019250508190555060326003546064600080868152602001908152602001600020600301540281610ca257fe5b041115610ce157600160008084815260200190815260200160002060050160006101000a81548160ff02191690836002811115610cdb57fe5b02179055505b610dad565b600260003373ffffffffffffffffffffffffffffffffffffffff1673ffffffffffffffffffffffffffffffffffffffff168152602001908152602001600020546000808481526020019081526020016000206004016000828254019250508190555060326003546064600080868152602001908152602001600020600401540281610d6d57fe5b041115610dac57600260008084815260200190815260200160002060050160006101000a81548160ff02191690836002811115610da657fe5b02179055505b5b5050565b60026020528060005260406000206000915090505481565b600460009054906101000a900473ffffffffffffffffffffffffffffffffffffffff168156fe6e6f7420656e6f7567682073686172657320746f2063726561746520612070726f706f73616ca2646970667358221220e2fd73a278613ffb50667d042674bbfb897e26ea0e71751c3e35ab0bbc3d95c464736f6c63430007030033",
  "immutableReferences": {},
  "source": "pragma solidity ^0.7.3;\n\nimport '@openzeppelin/contracts/token/ERC20/IERC20.sol';\n\ncontract DAO {\n  enum Side {Yes, No}\n  enum Status {Undecided, Approved, Rejected}\n  struct Proposal {\n    address proposal;\n    bytes32 hash;\n    uint createdAt;\n    uint voteYes;\n    uint voteNo;\n    Status status;\n  }\n\n  mapping(bytes32 => Proposal) public proposals;\n  mapping(address => mapping(bytes32 => bool)) public votes;\n  mapping(address => uint) public shares;\n  uint public totalShares;\n  IERC20 public token;\n  uint constant CREATE_PROPOSAL_MIN_SHARE = 1000 * 10 * 18;\n  uint constant VOTING_PERIOD = 7 days;\n\n  constructor (address _token) {\n    token = IERC20(_token);\n  }\n\n  function deposit(uint _shares) external {\n    shares[msg.sender] += _shares;\n    totalShares += _shares;\n    token.transferFrom(msg.sender, address(this), _shares);\n  }\n\n  function withdraw(uint _shares) external {\n    require(shares[msg.sender] >= _shares, 'not enough shares to withdraw');\n    shares[msg.sender] -= _shares;\n    totalShares -= _shares;\n    token.transfer(msg.sender, _shares);\n  }\n\n  function createProposal(bytes32 _proposal) external {\n    require(shares[msg.sender] >= CREATE_PROPOSAL_MIN_SHARE, 'not enough shares to create a proposal');\n    require(proposals[_proposal].hash == bytes32(0), 'proposal already created');\n    proposals[_proposal] = Proposal(\n      msg.sender,\n      _proposal,\n      block.timestamp,\n      0,\n      0,\n      Status.Undecided\n      );\n  }\n\n  function vote(bytes32 _proposal, Side _side) external {\n    //Proposal storage proposal = proposals[_proposal];\n    require(proposals[_proposal].hash != bytes32(0), 'proposal does not exist');\n    require(shares[msg.sender] != 0, 'no shares to vote with');\n    require(votes[msg.sender][_proposal] == false, 'already voted');\n    require(proposals[_proposal].createdAt + VOTING_PERIOD >= block.timestamp, 'voting period ended');\n    votes[msg.sender][_proposal] = true;\n    if(_side == Side.Yes)\n    {\n      proposals[_proposal].voteYes += shares[msg.sender];\n      if(proposals[_proposal].voteYes * 100 / totalShares > 50) {\n        proposals[_proposal].status = Status.Approved;\n      }\n    } else {\n      proposals[_proposal].voteNo += shares[msg.sender];\n      if(proposals[_proposal].voteNo * 100 / totalShares > 50) {\n        proposals[_proposal].status = Status.Rejected;\n      }\n    }\n  }\n}\n",
  "sourcePath": "/home/thibault/Documents/Ethereum/Eattheblocks/Defi-Development-Mastery/Defi-building-blocks/dao/contracts/DAO.sol",
  "compiler": {
    "name": "solc",
    "version": "0.7.3+commit.9bfce1f6.Emscripten.clang"
  },
  "schemaVersion": "3.3.1",
  "updatedAt": "2020-12-31T10:06:29.497Z",
  "devdoc": {
    "kind": "dev",
    "methods": {},
    "version": 1
  },
  "userdoc": {
    "kind": "user",
    "methods": {},
    "version": 1
  }
}