{
  "contractName": "MyDefiProject",
  "abi": [
    {
      "inputs": [
        {
          "internalType": "address",
          "name": "_addressComptroller",
          "type": "address"
        },
        {
          "internalType": "address",
          "name": "_addressOracle",
          "type": "address"
        }
      ],
      "stateMutability": "nonpayable",
      "type": "constructor"
    },
    {
      "inputs": [],
      "name": "comptroller",
      "outputs": [
        {
          "internalType": "contract ComptrollerInterface",
          "name": "",
          "type": "address"
        }
      ],
      "stateMutability": "view",
      "type": "function",
      "constant": true
    },
    {
      "inputs": [],
      "name": "oracle",
      "outputs": [
        {
          "internalType": "contract PriceOracleInterface",
          "name": "",
          "type": "address"
        }
      ],
      "stateMutability": "view",
      "type": "function",
      "constant": true
    },
    {
      "inputs": [
        {
          "internalType": "address",
          "name": "_cTokenAddress",
          "type": "address"
        },
        {
          "internalType": "uint256",
          "name": "_underlyingAmount",
          "type": "uint256"
        }
      ],
      "name": "lend",
      "outputs": [],
      "stateMutability": "nonpayable",
      "type": "function"
    },
    {
      "inputs": [
        {
          "internalType": "address",
          "name": "_cTokenAddress",
          "type": "address"
        },
        {
          "internalType": "uint256",
          "name": "_underlyingAmount",
          "type": "uint256"
        }
      ],
      "name": "redeem",
      "outputs": [],
      "stateMutability": "nonpayable",
      "type": "function"
    },
    {
      "inputs": [
        {
          "internalType": "address",
          "name": "cTokenAddress",
          "type": "address"
        }
      ],
      "name": "enterMarket",
      "outputs": [],
      "stateMutability": "nonpayable",
      "type": "function"
    },
    {
      "inputs": [
        {
          "internalType": "uint256",
          "name": "_borrowAmount",
          "type": "uint256"
        },
        {
          "internalType": "address",
          "name": "_cTokenAddress",
          "type": "address"
        }
      ],
      "name": "borrow",
      "outputs": [],
      "stateMutability": "nonpayable",
      "type": "function"
    },
    {
      "inputs": [
        {
          "internalType": "uint256",
          "name": "_repayAmount",
          "type": "uint256"
        },
        {
          "internalType": "address",
          "name": "_cTokenAddress",
          "type": "address"
        }
      ],
      "name": "repayBorrow",
      "outputs": [],
      "stateMutability": "nonpayable",
      "type": "function"
    },
    {
      "inputs": [
        {
          "internalType": "address",
          "name": "_cTokenAddress",
          "type": "address"
        }
      ],
      "name": "getMaxBorrow",
      "outputs": [
        {
          "internalType": "uint256",
          "name": "",
          "type": "uint256"
        }
      ],
      "stateMutability": "view",
      "type": "function",
      "constant": true
    }
  ],
  "bytecode": "0x608060405234801561001057600080fd5b506040516112483803806112488339818101604052604081101561003357600080fd5b810190808051906020019092919080519060200190929190505050816000806101000a81548173ffffffffffffffffffffffffffffffffffffffff021916908373ffffffffffffffffffffffffffffffffffffffff16021790555080600160006101000a81548173ffffffffffffffffffffffffffffffffffffffff021916908373ffffffffffffffffffffffffffffffffffffffff1602179055505050611168806100e06000396000f3fe608060405234801561001057600080fd5b50600436106100885760003560e01c806369a5e8cf1161005b57806369a5e8cf146101a15780637dc0d1d0146101ef578063a2fb342d14610223578063fd1c317a1461027157610088565b80631e9a69501461008d5780633fe5d425146100db5780634b3fd1481461011f5780635fe3b5671461016d575b600080fd5b6100d9600480360360408110156100a357600080fd5b81019080803573ffffffffffffffffffffffffffffffffffffffff169060200190929190803590602001909291905050506102c9565b005b61011d600480360360208110156100f157600080fd5b81019080803573ffffffffffffffffffffffffffffffffffffffff1690602001909291905050506103bf565b005b61016b6004803603604081101561013557600080fd5b8101908080359060200190929190803573ffffffffffffffffffffffffffffffffffffffff169060200190929190505050610652565b005b6101756107ce565b604051808273ffffffffffffffffffffffffffffffffffffffff16815260200191505060405180910390f35b6101ed600480360360408110156101b757600080fd5b8101908080359060200190929190803573ffffffffffffffffffffffffffffffffffffffff1690602001909291905050506107f2565b005b6101f7610a1b565b604051808273ffffffffffffffffffffffffffffffffffffffff16815260200191505060405180910390f35b61026f6004803603604081101561023957600080fd5b81019080803573ffffffffffffffffffffffffffffffffffffffff16906020019092919080359060200190929190505050610a41565b005b6102b36004803603602081101561028757600080fd5b81019080803573ffffffffffffffffffffffffffffffffffffffff169060200190929190505050610c6a565b6040518082815260200191505060405180910390f35b600082905060008173ffffffffffffffffffffffffffffffffffffffff1663db006a75846040518263ffffffff1660e01b815260040180828152602001915050602060405180830381600087803b15801561032357600080fd5b505af1158015610337573d6000803e3d6000fd5b505050506040513d602081101561034d57600080fd5b81019080805190602001909291905050509050600081146103b9576040517f08c379a00000000000000000000000000000000000000000000000000000000081526004018080602001828103825260478152602001806110ec6047913960600191505060405180910390fd5b50505050565b6060600167ffffffffffffffff811180156103d957600080fd5b506040519080825280602002602001820160405280156104085781602001602082028036833780820191505090505b509050818160008151811061041957fe5b602002602001019073ffffffffffffffffffffffffffffffffffffffff16908173ffffffffffffffffffffffffffffffffffffffff1681525050606060008054906101000a900473ffffffffffffffffffffffffffffffffffffffff1673ffffffffffffffffffffffffffffffffffffffff1663c2998238836040518263ffffffff1660e01b81526004018080602001828103825283818151815260200191508051906020019060200280838360005b838110156104e45780820151818401526020810190506104c9565b5050505090500192505050600060405180830381600087803b15801561050957600080fd5b505af115801561051d573d6000803e3d6000fd5b505050506040513d6000823e3d601f19601f82011682018060405250602081101561054757600080fd5b810190808051604051939291908464010000000082111561056757600080fd5b8382019150602082018581111561057d57600080fd5b825186602082028301116401000000008211171561059a57600080fd5b8083526020830192505050908051906020019060200280838360005b838110156105d15780820151818401526020810190506105b6565b5050505090500160405250505090506000816000815181106105ef57fe5b60200260200101511461064d576040517f08c379a0000000000000000000000000000000000000000000000000000000008152600401808060200182810382526051815260200180610f6f6051913960600191505060405180910390fd5b505050565b600081905060008173ffffffffffffffffffffffffffffffffffffffff16636f307dc36040518163ffffffff1660e01b815260040160206040518083038186803b15801561069f57600080fd5b505afa1580156106b3573d6000803e3d6000fd5b505050506040513d60208110156106c957600080fd5b8101908080519060200190929190505050905060008273ffffffffffffffffffffffffffffffffffffffff1663c5ebeaec866040518263ffffffff1660e01b815260040180828152602001915050602060405180830381600087803b15801561073157600080fd5b505af1158015610745573d6000803e3d6000fd5b505050506040513d602081101561075b57600080fd5b81019080805190602001909291905050509050600081146107c7576040517f08c379a00000000000000000000000000000000000000000000000000000000081526004018080602001828103825260478152602001806110516047913960600191505060405180910390fd5b5050505050565b60008054906101000a900473ffffffffffffffffffffffffffffffffffffffff1681565b600081905060008173ffffffffffffffffffffffffffffffffffffffff16636f307dc36040518163ffffffff1660e01b815260040160206040518083038186803b15801561083f57600080fd5b505afa158015610853573d6000803e3d6000fd5b505050506040513d602081101561086957600080fd5b810190808051906020019092919050505090508073ffffffffffffffffffffffffffffffffffffffff1663095ea7b384866040518363ffffffff1660e01b8152600401808373ffffffffffffffffffffffffffffffffffffffff16815260200182815260200192505050602060405180830381600087803b1580156108ed57600080fd5b505af1158015610901573d6000803e3d6000fd5b505050506040513d602081101561091757600080fd5b81019080805190602001909291905050505060008273ffffffffffffffffffffffffffffffffffffffff16630e752702866040518263ffffffff1660e01b815260040180828152602001915050602060405180830381600087803b15801561097e57600080fd5b505af1158015610992573d6000803e3d6000fd5b505050506040513d60208110156109a857600080fd5b8101908080519060200190929190505050905060008114610a14576040517f08c379a000000000000000000000000000000000000000000000000000000000815260040180806020018281038252604c815260200180610fc0604c913960600191505060405180910390fd5b5050505050565b600160009054906101000a900473ffffffffffffffffffffffffffffffffffffffff1681565b600082905060008173ffffffffffffffffffffffffffffffffffffffff16636f307dc36040518163ffffffff1660e01b815260040160206040518083038186803b158015610a8e57600080fd5b505afa158015610aa2573d6000803e3d6000fd5b505050506040513d6020811015610ab857600080fd5b810190808051906020019092919050505090508073ffffffffffffffffffffffffffffffffffffffff1663095ea7b385856040518363ffffffff1660e01b8152600401808373ffffffffffffffffffffffffffffffffffffffff16815260200182815260200192505050602060405180830381600087803b158015610b3c57600080fd5b505af1158015610b50573d6000803e3d6000fd5b505050506040513d6020811015610b6657600080fd5b81019080805190602001909291905050505060008273ffffffffffffffffffffffffffffffffffffffff1663a0712d68856040518263ffffffff1660e01b815260040180828152602001915050602060405180830381600087803b158015610bcd57600080fd5b505af1158015610be1573d6000803e3d6000fd5b505050506040513d6020811015610bf757600080fd5b8101908080519060200190929190505050905060008114610c63576040517f08c379a000000000000000000000000000000000000000000000000000000000815260040180806020018281038252604581526020018061100c6045913960600191505060405180910390fd5b5050505050565b60008060008060008054906101000a900473ffffffffffffffffffffffffffffffffffffffff1673ffffffffffffffffffffffffffffffffffffffff16635ec88c79306040518263ffffffff1660e01b8152600401808273ffffffffffffffffffffffffffffffffffffffff16815260200191505060606040518083038186803b158015610cf757600080fd5b505afa158015610d0b573d6000803e3d6000fd5b505050506040513d6060811015610d2157600080fd5b8101908080519060200190929190805190602001909291908051906020019092919050505092509250925060008314610da5576040517f08c379a00000000000000000000000000000000000000000000000000000000081526004018080602001828103825260548152602001806110986054913960600191505060405180910390fd5b60008114610e1b576040517f08c379a00000000000000000000000000000000000000000000000000000000081526004018080602001828103825260128152602001807f6163636f756e7420756e6465727761746572000000000000000000000000000081525060200191505060405180910390fd5b60008211610e91576040517f08c379a00000000000000000000000000000000000000000000000000000000081526004018080602001828103825260208152602001807f6163636f756e7420646f6573206e6f74206861766520636f6c6c61746572616c81525060200191505060405180910390fd5b6000600160009054906101000a900473ffffffffffffffffffffffffffffffffffffffff1673ffffffffffffffffffffffffffffffffffffffff1663fc57d4df876040518263ffffffff1660e01b8152600401808273ffffffffffffffffffffffffffffffffffffffff16815260200191505060206040518083038186803b158015610f1c57600080fd5b505afa158015610f30573d6000803e3d6000fd5b505050506040513d6020811015610f4657600080fd5b81019080805190602001909291905050509050808381610f6257fe5b0494505050505091905056fe636f6d7074726f6c6c657223656e7465724d61726b65742829206661696c65642e2073656520436f6d706f756e64204572726f725265706f727465722e736f6c20666f72206d6f72652064657461696c7363546f6b656e237265706179426f72726f772829206661696c65642e2073656520436f6d706f756e64204572726f725265706f727465722e736f6c20666f72206d6f72652064657461696c7363546f6b656e236d696e742829206661696c65642e2073656520436f6d706f756e64204572726f725265706f727465722e736f6c20666f72206d6f72652064657461696c7363546f6b656e23626f72726f772829206661696c65642e2073656520436f6d706f756e64204572726f725265706f727465722e736f6c20666f72206d6f72652064657461696c7363546f6b656e236765744163636f756e744c69717569646974792829206661696c65642e2073656520436f6d706f756e64204572726f725265706f727465722e736f6c20666f72206d6f72652064657461696c7363546f6b656e2372656465656d2829206661696c65642e2073656520436f6d706f756e64204572726f725265706f727465722e736f6c20666f72206d6f72652064657461696c73a26469706673582212205c65c16072233dd45f94a42d406197841d4e7e8655f167ea385fc08146d4fb2f64736f6c63430007030033",
  "immutableReferences": {},
  "source": "pragma solidity ^0.7.3;\n\nimport '@openzeppelin/contracts/token/ERC20/IERC20.sol';\nimport './CTokenInterface.sol';\nimport './ComptrollerInterface.sol';\nimport './PriceOracleInterface.sol';\n\ncontract MyDefiProject {\n  ComptrollerInterface public comptroller;\n  PriceOracleInterface public oracle;\n\n  constructor(address _addressComptroller, address _addressOracle) {\n    comptroller = ComptrollerInterface(_addressComptroller);\n    oracle = PriceOracleInterface(_addressOracle);\n  }\n\n  // I. LENDING PART\n  //function to lend tokens on Compound, on supply seulement le collateral (pas de redeem des ctokens)\n  function lend(address _cTokenAddress, uint _underlyingAmount) external {\n    CTokenInterface cToken = CTokenInterface(_cTokenAddress);\n    address underlyingAdress = cToken.underlying();\n    IERC20(underlyingAdress).approve(_cTokenAddress, _underlyingAmount);\n    uint result = cToken.mint(_underlyingAmount);\n    require(\n      result == 0,\n      'cToken#mint() failed. see Compound ErrorReporter.sol for more details'\n      );\n   }\n\n   //redeem the ctokens against the underlying amount + interests\n   function redeem (address _cTokenAddress, uint _underlyingAmount) external {\n     CTokenInterface cToken = CTokenInterface(_cTokenAddress);\n     uint result = cToken.redeem(_underlyingAmount);\n     require(\n       result == 0,\n       'cToken#redeem() failed. see Compound ErrorReporter.sol for more details'\n     );\n    }\n\n\n    //IERC20(underlyingAdress).transferFrom(msg.sender, address(this), _amount);\n    //CTokenInterface(_token).mint(_underlyingAmount);\n    //CTokenInterface(_token).redeem(_underlyingAmount);\n\n    // II. BORROWING PART\n    //function to enter market\n    function enterMarket(address cTokenAddress) external {\n      address[] memory markets = new address[](1);\n      markets[0] = cTokenAddress;\n      uint[] memory results = comptroller.enterMarkets(markets);\n      require(\n        results[0] == 0,\n        'comptroller#enterMarket() failed. see Compound ErrorReporter.sol for more details'\n        );\n    }\n\n\n    //once we have enter a market, we are ready to borrow\n    //function to borrow\n    function borrow(uint _borrowAmount, address _cTokenAddress) external {\n      CTokenInterface cToken = CTokenInterface(_cTokenAddress);\n      address underlyingAddress = cToken.underlying();\n      uint result = cToken.borrow(_borrowAmount);\n      require(\n        result == 0,\n        'cToken#borrow() failed. see Compound ErrorReporter.sol for more details'\n      );\n    }\n\n    //function to repay borrow\n    function repayBorrow(uint _repayAmount, address _cTokenAddress) external {\n      CTokenInterface cToken = CTokenInterface(_cTokenAddress);\n      address underlyingAddress = cToken.underlying();\n      IERC20(underlyingAddress).approve(_cTokenAddress, _repayAmount);\n      uint result = cToken.repayBorrow(_repayAmount);\n      require(\n        result == 0,\n        'cToken#repayBorrow() failed. see Compound ErrorReporter.sol for more details'\n      );\n    }\n\n    //function to get max borrow\n    function getMaxBorrow(address _cTokenAddress) external view returns(uint) {\n\n      (uint result, uint liquidity, uint shortfall) = comptroller\n        .getAccountLiquidity(address(this));\n      require(\n        result == 0,\n        'cToken#getAccountLiquidity() failed. see Compound ErrorReporter.sol for more details'\n      );\n      require(shortfall == 0, 'account underwater');\n      require(liquidity > 0, 'account does not have collateral');\n\n      uint underlyingPrice = oracle.getUnderlyingPrice(_cTokenAddress);\n\n      return liquidity / underlyingPrice;\n    }\n}\n",
  "sourcePath": "/home/thibault/Documents/Ethereum/Eattheblocks/Defi-Development-Mastery/Defi-building-blocks/compound/contracts/MyDefiProject.sol",
  "compiler": {
    "name": "solc",
    "version": "0.7.3+commit.9bfce1f6.Emscripten.clang"
  },
  "schemaVersion": "3.3.1",
  "updatedAt": "2021-01-06T11:18:41.522Z",
  "networkType": "ethereum",
  "devdoc": {
    "kind": "dev",
    "methods": {},
    "version": 1
  },
  "userdoc": {
    "kind": "user",
    "methods": {},
    "version": 1
  }
}